:020000040800F2
:10000000A007002045010008091100081109000897
:1000100005110008E7030008131D00080000000098
:10002000000000000000000000000000F9180008B7
:10003000FD04000800000000611700080D1A000808
:100040005F0100085F0100085F0100085F01000810
:100050005F0100085F0100085F0100085F01000800
:100060005F0100085F0100085F0100085F010008F0
:100070005F0100085F0100085F0100085F010008E0
:100080005F0100085F0100085F0100085F010008D0
:100090005F0100085F0100085F0100085F010008C0
:1000A0005F0100085F0100085F0100085F010008B0
:1000B0005F0100085F0100085F0100085F010008A0
:1000C0005F0100085F0100085F0100085F01000890
:1000D0005F010008711A0008F91A00085F010008A2
:1000E0005F0100085F0100085F0100085F01000870
:1000F0005F0100085F0100085F0100085F01000860
:100100005F0100085F0100085F0100085F0100084F
:100110005F0100085F0100085F0100085F0100083F
:100120005F0100085F0100085F0100085F0100082F
:10013000DFF80CD000F0E4F8004800471122000876
:10014000A00700200648804706480047FEE7FEE774
:10015000FEE7FEE7FEE7FEE7FEE7FEE7FEE7FEE777
:10016000111A00083101000840EA01039B0703D07F
:1001700009E008C9121F08C0042AFAD203E011F8E6
:10018000013B00F8013B521EF9D27047D2B201E0A8
:1001900000F8012B491EFBD270470022F6E710B58C
:1001A00013460A4604461946FFF7F0FF204610BDE5
:1001B000421E12F8013F002BFBD111F8013B02F85F
:1001C000013B002BF9D1704730B505462A460B4656
:1001D00012F8010B13F8014B08B1A042F8D01CB182
:1001E000002802D06D1CF1E7284630BDCAB2401E7F
:1001F00010F8011F8A4202D00029F9D1002070476F
:10020000421C10F8011B0029FBD1801A704710B561
:10021000044600E0401C0378002BFBD100E0401CAA
:10022000521E04D311F8013B0370002BF7D10021BB
:100230000170204610BD034611F8012B00F8012B78
:10024000002AF9D11846704770B5064601F046FEFF
:10025000046805460A220021304600F018F82C6098
:1002600070BD30B50B46014600202022012409E074
:1002700021FA02F59D4205D303FA02F5491B04FA5F
:1002800002F52844151EA2F10102F1DC30BD2DE972
:10029000F04791460F4680460446002614F8015B5D
:1002A0002DB100F03FF80068405DC007F6D12B2D5E
:1002B00002D02D2D18D0641E4A463946204600F043
:1002C00035F827B13968A14201D1C7F8008071051E
:1002D0004FF002040BD54042002803DD01F0FEFD83
:1002E0000460A007BDE8F08746F48066E4E70028D4
:1002F000F8DA01F0F3FD04606FF00040F2E700006F
:10030000064C074D06E0E06840F0010394E8070062
:1003100098471034AC42F6D3FFF70EFF28240008AC
:100320004824000800487047242400082DE9F05FA5
:1003300082460078002715468B460AF10104B9462B
:10034000302801D09DB113E014F8010B0127782863
:1003500003D0582801D045B10AE00DB1102D07D1C6
:100360000027102514F8010B02E0082500E00A25FB
:100370000026B0460EE005FB080005FB06F101274C
:1003800001EB10461FFA80F8B6F5803F00D3B9465E
:1003900014F8010B294600F018F80028EBDABBF13D
:1003A000000F05D00FB1641E00E05446CBF80040AA
:1003B000B9F1000F06D001F091FD02210160C81EC5
:1003C000BDE8F09F48EA0640FAE73A2800D2303804
:1003D00020F02002412A01D3A2F13700884201D344
:1003E0004FF0FF30704700BFFEE7000010B500245B
:1003F0001548006820F4702013490860084600681A
:1004000040F40020086004E0601CC4B2012001F048
:10041000A3FE0E48006808B1642CF5DB642C01DBF8
:10042000012010BD002404E0601CC4B2012001F0D2
:1004300093FE0648006808B9642CF5DB642C01DBE8
:100440000120EEE70020ECE7040C0140308121425E
:1004500010B5002404E0601CC4B2012001F07CFE51
:100460000D48006808B1642CF5DB002404E0601C32
:10047000C4B2012001F070FE0748006808B9642C7E
:10048000F5DB282001F068FE0348006808B1012070
:1004900010BD0020FCE700003081214270B500242F
:1004A000002506E06006040EFFF7D2FF0443681C37
:1004B000C5B2082DF6DB204670BD000010B50C4813
:1004C000006820F470200A4908600846006840F47B
:1004D00040300860002007490860142001F016FE33
:1004E00001200549C1F8B0011E2001F035FE10BD04
:1004F000040C0140B081214200802142704700007D
:1005000010B580210348FFF748FE0020024908800B
:1005100010BD0000200100204200002070B50546FB
:10052000002400BF00F04AF980B90DA10E48FFF782
:100530004BFE044654B13A212046FFF757FE0446CD
:1005400014B1641C204670BD0020FCE7052001F0BA
:10055000DDFD2800A5F101018DB2E3D100BFF2E776
:100560004950442C000000002001002008B5012162
:10057000082001F007F910208DF803000220ADF8E3
:10058000000003208DF802006946324800F030F97F
:10059000002202212F4800F0B6F9FA2001F0B6FD42
:1005A000012202212B4800F0AEF94FF4FA7001F05D
:1005B000ADFDFFF7A5FF28A001F06CFC03E04FF4B0
:1005C000FA7001F0A3FDC82225A126A000F0ACF826
:1005D0000028F4D125A001F05DFC03E04FF4FA708F
:1005E00001F094FDC8221EA123A000F09DF8002870
:1005F000F4D125A001F04EFC03E04FF4FA7001F0B5
:1006000085FDC82216A123A000F08EF80028F4D1A1
:1006100024A001F03FFC03E04FF4FA7001F076FDF6
:10062000C82222A123A000F07FF80028F4D129A03D
:1006300001F030FC03E04FF4FA7001F067FDC822CE
:1006400027A129A000F070F80028F4D131A001F012
:1006500021FC08BD000C014041540D0A00000000BF
:100660004F4B000041540D0A0D00000043574D4F01
:1006700044450D0A0000000041542B43574D4F44A0
:10068000453D310D0A00000041542B435744484377
:10069000500D0A0041542B4357444843503D312CE0
:1006A000310D0A0043574A41500D0A00474F54206C
:1006B0004950000041542B43574A41503D224D7947
:1006C00057696669222C2231323334353637382265
:1006D0000D0A000043495053544152540D0A000082
:1006E000434F4E4E4543540041542B4349505354BD
:1006F0004152543D22544350222C223138332E3261
:1007000033302E34302E3339222C363030320D0A2D
:10071000000000004553503832363620496E697467
:10072000204F4B0D0A0000002DE9F04105460E4612
:1007300014462846FFF764FD87B23946284601F083
:100740003BFB0FE000F03AF848B931460948FFF7A3
:100750003BFD20B1FFF7D4FE0020BDE8F0810A2068
:1007600001F0D4FC2000A4F101018CB2EAD10120F7
:10077000F3E700002001002030B589B005460C46A3
:10078000FFF7BEFE224608A101A801F093FBC82294
:1007900009A101A8FFF7C8FF18B92146284601F0B2
:1007A0000BFB09B030BD000041542B434950534569
:1007B0004E443D25640D0A003E0000000A480088B2
:1007C00008B901207047084800880849098888420C
:1007D00003D1002004490880F4E703480088034956
:1007E00008800120EEE700004200002044000020C5
:1007F0002DE9F041024600250026002000230024B8
:10080000002791F803C00CF00F0591F803C00CF01D
:10081000100CBCF1000F03D091F802C04CEA0505A2
:1008200091F800C0BCF1000F31D0146800202BE01B
:100830004FF0010C0CFA00F3B1F800C00CEA03060B
:100840009E4220D183004FF00F0C0CFA03F7BC43FB
:1008500005FA03FC4CEA040491F803C0BCF1280F2C
:1008600006D14FF0010C0CFA00FCC2F814C00AE0EB
:1008700091F803C0BCF1480F05D14FF0010C0CFA00
:1008800000FCC2F810C0401C0828D1D31460B1F895
:1008900000C0BCF1FF0F34DD546800202EE000F1F1
:1008A000080C4FF0010808FA0CF3B1F800C00CEA8C
:1008B00003069E4221D183004FF00F0C0CFA03F780
:1008C000BC4305FA03FC4CEA040491F803C0BCF1F4
:1008D000280F05D100F1080C08FA0CF8C2F81480B2
:1008E00091F803C0BCF1480F07D100F1080C4FF09C
:1008F000010808FA0CF8C2F81080401C0828CED372
:100900005460BDE8F0810AB1016100E041617047C7
:1009100000BFFEE710B54FF4A06000F02FFC01F01F
:10092000D3FB4FF4E13001F0F7F94FF4E13001F07F
:100930005BFA00F023F805A001F0ACFA4FF47A70EE
:1009400001F0E4FB08A001F0A5FA10BD44485431C1
:1009500031BCECB2E2CAA7B0DCA3ACC7EBB2E5BADB
:10096000C3210D0A000000004448543131BCECB2F0
:10097000E2B3C9B9A6210D0A0000000008B50121A3
:10098000042000F0FFFE0121102000F0FBFE4FF4D8
:100990006040ADF8000010208DF8030003208DF8B2
:1009A000020069460148FFF723FF08BD001001401F
:1009B00010B50446207B012802D1206801F000FC1C
:1009C000002020606060A060207310BD02460023FC
:1009D00001230DE002F07F000870D2092AB10878E7
:1009E00040F080000870491C01E0184670475B1C0D
:1009F000042BEFDD4FF0FF30F8E770B504460E46EC
:100A00000025206898B901202073304601F092FC3F
:100A100020602068E0B100206060A66003E0002054
:100A2000216848556D1CA068A842F8D810E0022043
:100A3000207303E00020216848556D1CA068A8427F
:100A4000F8D800206060A068B04201D20020206089
:100A500070BD00002DE9FF5F07460D469046384601
:100A6000FFF7CEFB86B22846FFF7CAFB1FFA80FAD3
:100A70004FF00009B01D01F05DFC04461CB90120D7
:100A800004B0BDE8F09FB11D2046FFF786FB12A021
:100A9000016821608088A080324639462046FFF7F1
:100AA000B6FB2846FFF7ACFB8346012000210091EE
:100AB0005B462A46CDE90208019121460A2000F052
:100AC0005FF910B94FF0000901E04FF0010920462D
:100AD00001F076FB4846D3E724637273702F000061
:100AE0002DE9FF4F83B082468B469146159C002529
:100AF000002002900F2701904846FFF781FB0FFA74
:100B000080F8B9F1000F03D1012007B0BDE8F08FE4
:100B100008F10200384487B2109808B145F0020588
:100B2000129878B145F004051298FFF769FBC0B23E
:100B300002901398FFF764FB01460298001D0844D9
:100B4000384487B2119820B1012804D0022808D176
:100B500004E000BF07E045F00C0504E045F0140593
:100B600001E00220D1E700BF149808B145F0240548
:100B7000BAF1000F02D0BBF1000F01D10320C4E78E
:100B800045F0C0055046FFF73BFB06465846FFF7C9
:100B900037FB3044001D384487B239462046FFF702
:100BA0002CFF206808B90420AFE739462068FFF71A
:100BB000F4FA10216268501C606020688154D4E906
:100BC0000023D118781FFFF701FF00B201900198B0
:100BD000002804DA2046FFF7EBFE052095E7616860
:100BE00001980844606000216268501C60602068C1
:100BF000815404216268501C6060206881544D213A
:100C00006268501C60602068815451216268501CE9
:100C100060602068815454216268501C60602068C4
:100C200081546268501C60602068815404216268AD
:100C3000501C6060206881546168481C60602068B6
:100C400045540698010A6268501C6060206881540F
:100C50000698C1B26268501C606020688154C8F375
:100C600007216268501C6060206881546268501CD3
:100C70006060206800F80280D4E9001288184246BB
:100C80004946FFF7C4FA60684044606005F004001C
:100C9000B8B30026139808B938A013901298FFF73C
:100CA000AFFA86B2310A6268501C606020688154D5
:100CB0006268501C606020688654D4E9001288186D
:100CC00032461299FFF7A3FA6068304460601398C7
:100CD000FFF796FA86B2310A6268501C606020689D
:100CE00081546268501C606020688654D4E9001208
:100CF000881832461399FFF78AFA606830446060BA
:100D000000BF05F08000C8B15046FFF779FA86B2FF
:100D1000310A6268501C6060206881546268501C0F
:100D2000606020688654D4E9001288183246514623
:100D3000FFF76DFA60683044606000BF05F0400066
:100D4000C8B15846FFF75CFA86B2310A6268501C97
:100D50006060206881546268501C6060206886541E
:100D6000D4E90012881832465946FFF750FA6068F5
:100D70003044606000BF0020C7E6000000000000B3
:100D80002DE9FF4F83B0834690469946139C002679
:100D900000250020029001900027BBF1000F03D135
:100DA000012007B0BDE8F08F00250AE00498405DFF
:100DB000232803D00498405D2B2801D10220F0E7BE
:100DC0006D1C0498405D0028F0D147F03007119861
:100DD00008B147F0010705EB0900861C109820B107
:100DE000012804D002280AD105E000BF09E047F03D
:100DF0000207B61C05E047F00407B61C01E003201B
:100E0000CFE700BF98F80000022822D14FF0000A77
:100E100000BF50460AF1010A18F800007D28F8D1F9
:100E2000AAF1030A0AF1070002900298A9EB000A4E
:100E3000F01CA0EB0A012046FFF7DFFD206808B98F
:100E40000420AEE7F21CA2EB0A012068FFF7A5F927
:100E50000BE0F11C2046FFF7D0FD206808B9042004
:100E60009FE7F11C2068FFF798F96168481C6060F3
:100E700020684754D4E9000281183046FFF7A6FDE8
:100E800001900198002804DA2046FFF791FD052023
:100E900087E76168019808446060C5F307216268CC
:100EA000501C6060206881546268501C606020683B
:100EB0008554D4E9001288182A460499FFF7A7F947
:100EC000606828446060109860B14FEA1B21626836
:100ED000501C6060206881546268501C606020680B
:100EE00000F802B0B8F1000F19D098F800000228FD
:100EF0000BD1D4E9001288184146029AFFF734F961
:100F0000616802980844606009E0D4E9001288181A
:100F10004A464146FFF728F960684844606000206F
:100F20003FE700002DE9FF4107460D4690461E466B
:100F30000A9C01200021CDE90001EB1C0A460FA10B
:100F4000CDE902040A20FFF71BFF88B96168481C3D
:100F5000606020684654C5F307216268501C6060D9
:100F6000206881546268501C60602068855403E0EA
:100F7000012004B0BDE8F0810020FAE7246470008D
:100F8000F0B504460D4626460123002010600021DE
:100F900014E0775C07F07F07106807FB0300106020
:100FA000705C00F0800008B9481CF0BDDB01B3F5AF
:100FB000001F02D36FF00100F7E7491CA942E8DBEC
:100FC0004FF0FF30F1E72DE9F84380460C46154617
:100FD0001E462F2108F10600FFF708F907460020FA
:100FE000009017B90120BDE8F8837F1C6A460421F0
:100FF00008F10100FFF7C4FF252001F09BF92060F4
:10100000206808B90220EEE725212068FFF7C5F81F
:10101000242239462068FFF7A7F8243700982C3897
:1010200030803188481C01F085F92860286820B993
:10103000206801F0C5F80320D5E73288511C2868E4
:10104000FFF7ABF8328839462868FFF78DF80020A3
:10105000C9E701464878022801D001207047887806
:1010600010B18878012801D1C878F7E7FF20F5E7AB
:1010700001464878022801D001207047887820B9BD
:10108000C8780A2801D10020F7E70120F5E7000021
:10109000F8B50446FF2720780511012D01DB0E2D40
:1010A00001DD3846F8BD032D24D1002000906A46AA
:1010B0000421601CFFF764FF2044461C00980228AE
:1010C00003D3207800F0010008B1FF20EAE7707830
:1010D000317840EA0120801C0099884201D9FF2024
:1010E000E0E706A1B01CFFF76FF808B10F2700E09A
:1010F000032700E02F463846D4E7000024637265DA
:101100007100000000BFFEE77047000070B50021CD
:1011100000230F22C47804B3154C246804F4E0645F
:10112000C4F5E064210AC1F10403CA40447804FA1A
:1011300003F184781440214309010E4C0678A1552F
:10114000047804F01F050124AC4005786D11AD0052
:1011500005F1E025C5F8004109E0047804F01F0519
:101160000124AC40044D0678761145F8264070BD48
:101170000CED00E000E400E080E100E00249014302
:10118000024A1160704700000000FA050CED00E013
:1011900010B5FFF7EBF903E04FF4FA7000F0B6FF7B
:1011A00000F008F80028F7D10149086010BD0000E0
:1011B000B401224230B58BB000200790089009900E
:1011C0000A9001252BA32EA230A132A000F062FECE
:1011D00007A8002102910391CDE9041000912B0290
:1011E00024A2019126A129A0FFF77AFC00283BD177
:1011F000089A91B20798FFF7BFFAFA20FFF78EF925
:101200000446002C2CD02046FFF742FF022827D1AD
:101210002046FFF71EFF06281DD2DFE800F0030876
:101220000C10141827A000F035FE002517E02AA0A6
:1012300000F030FE13E02FA000F02CFE0FE036A0EF
:1012400000F028FE0BE03CA000F024FE07E043A0E5
:1012500000F020FE03E04CA000F01CFE00BF00BF29
:1012600007A8FFF7A5FB02E04EA000F013FE2846FA
:101270000BB030BD313032363839343135360000BC
:1012800032303031303830355459510035363631FE
:10129000323400004F6E654E65745F4465764C696C
:1012A0006E6B0D0A50524F49443A2025732C094168
:1012B0005549463A2025732C0944455649443A2558
:1012C000730D0A00546970733A09C1ACBDD3B3C938
:1012D000B9A60D0A000000005741524E3A09C1ACB0
:1012E000BDD3CAA7B0DCA3BAD0ADD2E9B4EDCEF37A
:1012F0000D0A00005741524E3A09C1ACBDD3CAA7EE
:10130000B0DCA3BAB7C7B7A8B5C4636C69656E741F
:1013100069640D0A000000005741524E3A09C1AC01
:10132000BDD3CAA7B0DCA3BAB7FECEF1C6F7CAA731
:10133000B0DC0D0A000000005741524E3A09C1AC22
:10134000BDD3CAA7B0DCA3BAD3C3BBA7C3FBBBF250
:10135000C3DCC2EBB4EDCEF30D0A00005741524E90
:101360003A09C1ACBDD3CAA7B0DCA3BAB7C7B7A806
:10137000C1B4BDD328B1C8C8E7746F6B656EB7C779
:10138000B7A8290D0A0000004552523A09C1ACBD68
:10139000D3CAA7B0DCA3BACEB4D6AAB4EDCEF30DAF
:1013A0000A0000005741524E3A094D5154545F50C3
:1013B00061636B6574436F6E6E656374204661692B
:1013C0006C65640D0A00000010B588B00446202149
:1013D0006846FEF7E2FE2AA12046FEF72CFF2021F8
:1013E0006846FEF7DAFE2748027827A1684600F033
:1013F00061FD69462046FEF7DBFE20216846FEF7C8
:10140000CCFE2448027824A1684600F053FD6946CA
:101410002046FEF7CDFE20216846FEF7BEFE21489D
:10142000027821A1684600F045FD69462046FEF796
:10143000BFFE20216846FEF7B0FE1E4803781E4816
:1014400002781EA1684600F035FD69462046FEF789
:10145000AFFE20216846FEF7A0FE1D4803781D4818
:1014600002781DA1684600F025FD69462046FEF77A
:101470009FFE2046FEF7C4FEC0B208B010BD0000BB
:101480002C3B0000460000206B65795F4C442C2506
:10149000643B0000470000206B65795F46532C25B4
:1014A000643B0000480000206B65795F58594A2C66
:1014B00025643B00070000200600002054656D7085
:1014C0007265747572652C25642E25643B000000DE
:1014D000050000200400002048756D696469747976
:1014E0002C25642E25643B002DE9F0418AB080460E
:1014F00000200690079008900990059004900390B2
:1015000000260027002500244046FFF7C1FD0646BF
:10151000042E22D00F2E28D103AB05AA04A94046E1
:10152000FFF751FD0746BFB9BDF80C3045A0DDE916
:10153000041200F0AFFC06AADDE90401FFF78AFA05
:1015400050B949A000F0A6FC079A91B20698FFF79F
:1015500013F906A8FFF72CFA0AE04046FFF788FDCA
:1015600010B947A000F096FC02E04FF0FF3700BF33
:1015700000BFFEF7C5FF781C10B90AB0BDE8F081C6
:101580003A210598FEF732FE0546002D4ED0781C14
:1015900000284BD06D1C05E015F8012B2046641C7B
:1015A0000DF800202878302802DB28783928F3DD70
:1015B00000200DF804006846FEF746FE044638A1F8
:1015C0000598FEF701FE58B1012C03D101203649E0
:1015D000086003E014B900203349086033490C70F7
:1015E00033A10598FEF7F0FD68B1012C04D100206D
:1015F0002D49091D086004E01CB901202A49091D74
:1016000008602D490C702DA10598FEF7DDFD68B12D
:10161000012C04D1002024490831086004E01CB9E1
:10162000012021490831086026490C700F2E01D095
:10163000032E05D1049800F0C3FD059800F0C0FD0D
:1016400000BF9AE7636D6469643A2025732C2072A9
:1016500065713A2025732C207265715F6C656E3A56
:101660002025640D0A000000546970733A0953651F
:101670006E6420436D64526573700D0A00000000B3
:10168000546970733A094D515454205075626C6915
:1016900073682053656E64204F4B0D0A00000000F4
:1016A0006B65795F4C440000B40122424600002083
:1016B0006B65795F46530000470000206B65795FDA
:1016C00058594A004800002030B5A5B000202190AC
:1016D00022902390249000240025802101A8FEF769
:1016E0005CFD01A8FFF770FE0446002C20D021A865
:1016F00005230022214600900EA0FFF713FCA0B99D
:1017000008E001A8415D229A501C22902198815442
:10171000681C05B2A542F4DB229A91B22198FFF72A
:101720002BF821A8FFF744F902E005A000F0B2FB76
:1017300025B030BD313032363839343135360000DD
:101740005741524E3A094544505F4E65774275669F
:10175000666572204661696C65640D0A00000000D0
:101760007047000029B1064AD2690243044BDA618E
:1017700004E0034AD2698243014BDA6170470000FA
:101780000010024029B1064A92690243044B9A6153
:1017900004E0034A92698243014B9A61704700005A
:1017A0000010024030B500210022002400232D4DFE
:1017B0006D6805F00C0121B1042905D0082923D159
:1017C00005E0294D056022E0274D05601FE0254D0D
:1017D0006D6805F47012234D6D6805F480340225A0
:1017E00005EB92421CB9214D554305600BE01D4DA0
:1017F0006D6805F400351DB11C4D5543056002E0D0
:10180000194D5543056002E0174D056000BF00BF4C
:10181000144D6D6805F0F0010909154D6B5C056804
:10182000DD4045600F4D6D6805F4E061090A104D1B
:101830006B5C4568DD4085600A4D6D6805F460515C
:10184000C90A0B4D6B5C4568DD40C560054D6D6890
:1018500005F44041890B074D6B5CC568B5FBF3F59A
:10186000056130BD0010024000127A0000093D0001
:101870002E0000203E0000207CB50446FEF71EFE30
:10188000FEF7B4FD40BB002505E0FEF707FE0DF8AE
:101890000500681CC5B2052DF7DB9DF800009DF81A
:1018A000011008449DF8021008449DF803100844F4
:1018B0009DF80410884211D19DF8000020709DF819
:1018C000010060709DF80200A0709DF80300E070B8
:1018D0009DF80400207101E001207CBD2078617832
:1018E0000844A1780844E17808442179884201D16C
:1018F0000120F2E70020F0E7704710B500F002F891
:1019000010BD00000CB50020019000903348006825
:1019100040F480303149086000BF3048006800F46E
:10192000003000900198401C0190009818B901986F
:10193000B0F5A06FF1D12948006800F4003010B173
:101940000120009001E0002000900098012843D180
:101950002348006840F010002149086008460068EC
:1019600020F0030008600846006840F002000860AC
:101970001A48406819494860084640684860084667
:10198000406840F4806048600846406820F47C105D
:1019900048600846406840F4E8104860084600681F
:1019A00040F08070086000BF0C48006800F00070D4
:1019B0000028F9D00948406820F003000749486032
:1019C0000846406840F00200486000BF0348406895
:1019D00000F00C000828F9D10CBD000000100240F6
:1019E00000200240042808D14FF0E021096941F0AD
:1019F00004014FF0E022116107E04FF0E021096996
:101A000021F004014FF0E02211617047704700009F
:101A100010B51348006840F00100114908600846FD
:101A20004068104908400E494860084600680E4961
:101A300008400B4908600846006820F480200860D0
:101A40000846406820F4FE0048604FF41F0088609C
:101A5000FFF753FF4FF000600449086010BD00001D
:101A6000001002400000FFF8FFFFF6FE08ED00E066
:101A700010B540F225511D4800F086F810B31B4800
:101A800000F03EF9C4B21A48008800F40040C8B91A
:101A90001748008800F4804060B10A2C03D0002071
:101AA0001349088020E01248008840F400401049A3
:101AB000088019E00D2C06D10D48008840F48040C4
:101AC0000B49088010E00A480088C0F30D0009495E
:101AD0000C5407480088401C0549088008460088C7
:101AE000C72801DD0020088010BD0000003801403B
:101AF0002C0000205800002010B540F225510E485F
:101B000000F042F8B0B10D480088802802D30020D0
:101B10000A4908800848001D0088C1B207480288A9
:101B20000088401C054B188005488154202102483C
:101B300000F008F810BD0000004400404200002002
:101B40002001002001F40072B2F5007F00D100BF37
:101B5000CA430280704721B1828942F400528281D7
:101B600004E082894DF6FF731A4082817047024675
:101B70000020B1F5007F00D100BF13880B400BB1EE
:101B8000012000E00020704770B5024600240023C9
:101B90000025002040F66A16B14200D100BFC1F313
:101BA000421501F01F03012606FA03F3012D02D1AD
:101BB0009689334006E0022D02D1168A334001E0B7
:101BC000968A33400C12012606FA04F41688344033
:101BD00013B10CB1012000E0002070BDF0B5034648
:101BE000002400260025002040F66A17B94200D1E3
:101BF00000BF1846C1F3421401F01F06012707FA7F
:101C000006F5012C01D10C3004E0022C01D110307A
:101C100000E014301AB107682F43076002E007683C
:101C2000AF430760F0BD00002DE9F04786B00546E0
:101C30000E460024A24600BFA1460027B08900B18D
:101C400000BF2F462C8A4CF6FF700440F0880443F6
:101C50002C82AC894EF6F3100440B08831890843D9
:101C6000718908430443AC81AC8A4FF6FF400440BD
:101C7000B0890443AC8201A8FFF794FD1F48874256
:101C800002D1DDF810A001E0DDF80CA0A88900F475
:101C9000004040B10AEBCA0000EB0A10316849006D
:101CA000B0FBF1F807E00AEBCA0000EB0A1031685C
:101CB0008900B0FBF1F86420B8FBF0F004012009C2
:101CC000642101FB1089A88900F4004040B1322052
:101CD00000EBC900B0FBF1F000F00700044308E09E
:101CE000322000EB09106421B0FBF1F000F00F008E
:101CF00004432C8106B0BDE8F087000000380140A5
:101D000001468888C0F308007047C1F3080282804A
:101D1000704700BFFEE7000010B586B00446012101
:101D200044F20400FFF72EFD4FF40070ADF81400EC
:101D300003208DF8160018208DF8170005A91C48FF
:101D4000FEF756FD4FF48060ADF8140004208DF8C6
:101D5000170005A91648FEF74BFD25208DF8000059
:101D600003208DF801008DF8020001208DF803009A
:101D70006846FFF7CBF901940020ADF80800ADF8F4
:101D80000A00ADF80C00ADF810000C20ADF80E0004
:101D900001A90848FFF748FF012240F225510548F4
:101DA000FFF71CFF01210348FFF7D5FE06B010BD69
:101DB000000801400038014070B504460D46002679
:101DC0000DE014F8011B0748FFF79FFF00BF4021FB
:101DD0000448FFF7CCFE0028F9D0701C86B2AE4252
:101DE000EFDB70BD0038014010B586B0044601211C
:101DF0000420FFF7C7FC01214804FFF7B3FC1820BB
:101E00008DF817000420ADF8140003208DF816009B
:101E100005A91E48FEF7ECFC04208DF817000820E9
:101E2000ADF8140003208DF8160005A91748FEF739
:101E3000DFFC01940020ADF810000C20ADF80E007E
:101E40000020ADF80C00ADF80A00ADF8080001A9BB
:101E50000F48FFF7E9FE01210D48FFF77CFE012244
:101E600040F225510A48FFF7B9FE26208DF8000000
:101E700001208DF8030000208DF801008DF802008C
:101E80006846FFF743F906B010BD000000080140A6
:101E9000004400400FB4054B10B503A9044A029852
:101EA00000F030F810BC5DF814FB0000A52100081C
:101EB000280000200FB4084B10B504A902AA03980B
:101EC00000F020F8044602A9002000F0F7F82046B0
:101ED00010BC5DF814FB0000BD20000800487047EE
:101EE0005400002002E008C8121F08C1002AFAD1DD
:101EF00070477047002001E001C1121F002AFBD18A
:101F0000704700002DE9FF4F8BB09A460F460546FB
:101F1000002606E025280BD052460D9990476D1CEF
:101F2000761C28780028F5D10FB03046BDE8F08F38
:101F30000024A0460122604900E0044315F8013F57
:101F4000203B02FA03F00842F7D128782E2817D157
:101F500015F8010F44F004042A280ED06FF02F0268
:101F60002878A0F1300109290AD808EB880102EB92
:101F7000410100EB01086D1CF2E757F8048B6D1C62
:101F8000287869283ED006DC0028CDD063280BD005
:101F9000642804D136E0732810D075284BD05246FF
:101FA0000D999047761C85E017F8040B8DF800001A
:101FB00000208DF80100E946012003E057F8049B5A
:101FC0004FF0FF3061074FF0000401D40AE0641CB9
:101FD00044450DDA8442FADB19F804100029F6D1E1
:101FE00006E0641C8442FCDB19F804100029F8D1D7
:101FF000264404E019F8010B52460D999047641EDF
:10200000F8D257E001CF4FF00A0B002802DA404225
:102010002D2102E0210504D52B218DF8241001216A
:1020200003E0E10705D02021F7E70DF12009089131
:102030000CE00021F9E701CF4FF00A0BF9E7594610
:10204000FEF70FF901F1300209F8012D0028F6D151
:10205000ADEB090000F1200B600701D44FF001083F
:10206000D84502DDA8EB0B0000E0002080460024EC
:1020700006E009A85246005D0D999047641C761C45
:1020800008988442F5DB04E0302052460D999047D1
:10209000761CB8F10001A8F10108F5DC05E019F89B
:1020A000010B52460D999047761CBBF10001ABF134
:1020B000010BF4DC6D1C34E7092801000A68531C8D
:1020C0000B6010707047000010B56FF00400FFF750
:1020D00089FC0A4800680A49B0FBF1F00949087018
:1020E0000846007800EB4001C1EBC0104FF6FF71CD
:1020F00001EAC0000449088010BD00001000002063
:1021000000127A0024000020260000200146114A17
:1021100012884A434FF0E0235A6100229A611A461E
:10212000126942F001021A6100BF4FF0E02210690B
:1021300000F001021AB100F48032002AF5D04FF00D
:10214000E022126922F001024FF0E0231A6100221E
:102150009A617047260000200146114A12784A43CE
:102160004FF0E0235A6100229A611A46126942F048
:1021700001021A6100BF4FF0E022106900F0010275
:102180001AB100F48032002AF5D04FF0E022126933
:1021900022F001024FF0E0231A6100229A61704799
:1021A0002400002000BF054A128802F04002002AE5
:1021B000F9D0C2B2014B1B1D1A8070470044004089
:1021C00010B5002821D0114B0022001F196803E030
:1021D000814203D80A4649680029F9D152B11368EF
:1021E000841A9C4204D1006818441060104602E032
:1021F000506000E0186039B102680B1A934203D1B5
:102200000B681A4402604968416010BD4C00002010
:1022100000244FF49675FEF77DFBFEF7B9FF002012
:102220002949086001202949C1F8B8012649083127
:10223000086047E00A20FFF769FF681C85B2681C48
:1022400080B20546B0F5FA7F31DB2148FFF714FB79
:10225000012823D11E48427801781EA0FFF71AFEFC
:102260001B4800781E490870194840781D490870BD
:10227000174880781C4908701548C0781B490870B9
:10228000084602781848017819A0FFF703FE1548A0
:102290000278134801781AA0FFF7FCFD1CA0FFF795
:1022A000F9FDFFF711FA1FA0FFF7F4FD002500204C
:1022B000FEF734F9044614B12046FFF715F90A2059
:1022C000FFF724FFB6E70000B401224200002242DB
:1022D0000800002068756D3D25642E25640A000005
:1022E0000400002005000020060000200700002058
:1022F00074656D703D2564202E25640D0A00000074
:1023000068756D3D2564202E25640D0A00000000CF
:102310004F6E654E65745F53656E64446174610D04
:102320000A0000005055425F646174615F656E642D
:102330000A000000F0B50B30154D20F00701002415
:10234000144A0FE003688B420BD38B4205D95E1A07
:1023500043184768C3E9006700E04368136002C0A0
:1023600004E0021D10680028ECD12046002802D1AC
:10237000286808B10020F0BD064A07481060074AE7
:10238000121A22F00702C0E9002401202860D7E7D2
:10239000500000204C000020A4010020A0030020D9
:1023A0000040404040404040404041414141414068
:1023B000404040404040404040404040404040401D
:1023C00040050202020202020202020202020202AC
:1023D00002202020202020202020200202020202B1
:1023E0000202909090909090101010101010101009
:1023F0001010101010101010101010100202020215
:102400000202888888888888080808080808080858
:102410000808080808080808080808080202020254
:1024200040000000A123000848240008000000200C
:1024300058000000E41E0008A024000858000020F6
:1024400048070000F41E0008000000000000000023
:10245000000000000000000000A24A04000000008C
:102460000000000001020304060708090000000044
:10247000000000000000000000000102030401024F
:102480000304060708090204060800000000000013
:10249000000000000000000000000000000000003C
:0400000508000145A9
:00000001FF
